{
  "_format": "hh-sol-artifact-1",
  "contractName": "YieldFarm",
  "sourceName": "contracts/YieldFarm.sol",
  "abi": [
    {
      "inputs": [
        {
          "internalType": "address",
          "name": "_stakingToken",
          "type": "address"
        },
        {
          "internalType": "address",
          "name": "_rewardToken",
          "type": "address"
        },
        {
          "internalType": "uint256",
          "name": "_rewardRate",
          "type": "uint256"
        }
      ],
      "stateMutability": "nonpayable",
      "type": "constructor"
    },
    {
      "inputs": [],
      "name": "ReentrancyGuardReentrantCall",
      "type": "error"
    },
    {
      "inputs": [
        {
          "internalType": "address",
          "name": "_user",
          "type": "address"
        }
      ],
      "name": "calculateReward",
      "outputs": [
        {
          "internalType": "uint256",
          "name": "",
          "type": "uint256"
        }
      ],
      "stateMutability": "view",
      "type": "function"
    },
    {
      "inputs": [],
      "name": "claimReward",
      "outputs": [],
      "stateMutability": "nonpayable",
      "type": "function"
    },
    {
      "inputs": [
        {
          "internalType": "address",
          "name": "",
          "type": "address"
        }
      ],
      "name": "lastClaimTime",
      "outputs": [
        {
          "internalType": "uint256",
          "name": "",
          "type": "uint256"
        }
      ],
      "stateMutability": "view",
      "type": "function"
    },
    {
      "inputs": [],
      "name": "owner",
      "outputs": [
        {
          "internalType": "address",
          "name": "",
          "type": "address"
        }
      ],
      "stateMutability": "view",
      "type": "function"
    },
    {
      "inputs": [],
      "name": "rewardRate",
      "outputs": [
        {
          "internalType": "uint256",
          "name": "",
          "type": "uint256"
        }
      ],
      "stateMutability": "view",
      "type": "function"
    },
    {
      "inputs": [],
      "name": "rewardToken",
      "outputs": [
        {
          "internalType": "contract IERC20",
          "name": "",
          "type": "address"
        }
      ],
      "stateMutability": "view",
      "type": "function"
    },
    {
      "inputs": [
        {
          "internalType": "uint256",
          "name": "_amount",
          "type": "uint256"
        }
      ],
      "name": "stake",
      "outputs": [],
      "stateMutability": "nonpayable",
      "type": "function"
    },
    {
      "inputs": [
        {
          "internalType": "address",
          "name": "",
          "type": "address"
        }
      ],
      "name": "stakedBalance",
      "outputs": [
        {
          "internalType": "uint256",
          "name": "",
          "type": "uint256"
        }
      ],
      "stateMutability": "view",
      "type": "function"
    },
    {
      "inputs": [],
      "name": "stakingToken",
      "outputs": [
        {
          "internalType": "contract IERC20",
          "name": "",
          "type": "address"
        }
      ],
      "stateMutability": "view",
      "type": "function"
    },
    {
      "inputs": [
        {
          "internalType": "uint256",
          "name": "_amount",
          "type": "uint256"
        }
      ],
      "name": "unstake",
      "outputs": [],
      "stateMutability": "nonpayable",
      "type": "function"
    }
  ],
  "bytecode": "0x608060405234801561001057600080fd5b50604051611166380380611166833981810160405281019061003291906101f6565b600161005061004561012860201b60201c565b61015360201b60201c565b60000181905550826000806101000a81548173ffffffffffffffffffffffffffffffffffffffff021916908373ffffffffffffffffffffffffffffffffffffffff16021790555081600160006101000a81548173ffffffffffffffffffffffffffffffffffffffff021916908373ffffffffffffffffffffffffffffffffffffffff1602179055508060028190555033600360006101000a81548173ffffffffffffffffffffffffffffffffffffffff021916908373ffffffffffffffffffffffffffffffffffffffff160217905550505050610249565b60007f9b779b17422d0df92223018b32b4d1fa46e071723d6817e2486d003becc55f0060001b905090565b6000819050919050565b600080fd5b600073ffffffffffffffffffffffffffffffffffffffff82169050919050565b600061018d82610162565b9050919050565b61019d81610182565b81146101a857600080fd5b50565b6000815190506101ba81610194565b92915050565b6000819050919050565b6101d3816101c0565b81146101de57600080fd5b50565b6000815190506101f0816101ca565b92915050565b60008060006060848603121561020f5761020e61015d565b5b600061021d868287016101ab565b935050602061022e868287016101ab565b925050604061023f868287016101e1565b9150509250925092565b610f0e806102586000396000f3fe608060405234801561001057600080fd5b506004361061009e5760003560e01c8063a694fc3a11610066578063a694fc3a14610149578063b77cf9c614610165578063b88a802f14610195578063d82e39621461019f578063f7c618c1146101cf5761009e565b80632e17de78146100a357806360217267146100bf57806372f702f3146100ef5780637b0a47ee1461010d5780638da5cb5b1461012b575b600080fd5b6100bd60048036038101906100b891906109f3565b6101ed565b005b6100d960048036038101906100d49190610a7e565b6104b7565b6040516100e69190610aba565b60405180910390f35b6100f76104cf565b6040516101049190610b34565b60405180910390f35b6101156104f3565b6040516101229190610aba565b60405180910390f35b6101336104f9565b6040516101409190610b5e565b60405180910390f35b610163600480360381019061015e91906109f3565b61051f565b005b61017f600480360381019061017a9190610a7e565b6106b0565b60405161018c9190610aba565b60405180910390f35b61019d6106c8565b005b6101b960048036038101906101b49190610a7e565b610810565b6040516101c69190610aba565b60405180910390f35b6101d76108c0565b6040516101e49190610b34565b60405180910390f35b6101f56108e6565b60008111610238576040517f08c379a000000000000000000000000000000000000000000000000000000000815260040161022f90610bd6565b60405180910390fd5b80600460003373ffffffffffffffffffffffffffffffffffffffff1673ffffffffffffffffffffffffffffffffffffffff1681526020019081526020016000205410156102ba576040517f08c379a00000000000000000000000000000000000000000000000000000000081526004016102b190610c42565b60405180910390fd5b60006102c533610810565b905060008111156103b65742600560003373ffffffffffffffffffffffffffffffffffffffff1673ffffffffffffffffffffffffffffffffffffffff16815260200190815260200160002081905550600160009054906101000a900473ffffffffffffffffffffffffffffffffffffffff1673ffffffffffffffffffffffffffffffffffffffff1663a9059cbb33836040518363ffffffff1660e01b8152600401610371929190610c62565b6020604051808303816000875af1158015610390573d6000803e3d6000fd5b505050506040513d601f19601f820116820180604052508101906103b49190610cc3565b505b81600460003373ffffffffffffffffffffffffffffffffffffffff1673ffffffffffffffffffffffffffffffffffffffff16815260200190815260200160002060008282546104059190610d1f565b9250508190555060008054906101000a900473ffffffffffffffffffffffffffffffffffffffff1673ffffffffffffffffffffffffffffffffffffffff1663a9059cbb33846040518363ffffffff1660e01b8152600401610467929190610c62565b6020604051808303816000875af1158015610486573d6000803e3d6000fd5b505050506040513d601f19601f820116820180604052508101906104aa9190610cc3565b50506104b4610909565b50565b60046020528060005260406000206000915090505481565b60008054906101000a900473ffffffffffffffffffffffffffffffffffffffff1681565b60025481565b600360009054906101000a900473ffffffffffffffffffffffffffffffffffffffff1681565b6105276108e6565b6000811161056a576040517f08c379a000000000000000000000000000000000000000000000000000000000815260040161056190610d9f565b60405180910390fd5b60008054906101000a900473ffffffffffffffffffffffffffffffffffffffff1673ffffffffffffffffffffffffffffffffffffffff166323b872dd3330846040518463ffffffff1660e01b81526004016105c793929190610dbf565b6020604051808303816000875af11580156105e6573d6000803e3d6000fd5b505050506040513d601f19601f8201168201806040525081019061060a9190610cc3565b5080600460003373ffffffffffffffffffffffffffffffffffffffff1673ffffffffffffffffffffffffffffffffffffffff168152602001908152602001600020600082825461065a9190610df6565b9250508190555042600560003373ffffffffffffffffffffffffffffffffffffffff1673ffffffffffffffffffffffffffffffffffffffff168152602001908152602001600020819055506106ad610909565b50565b60056020528060005260406000206000915090505481565b6106d06108e6565b60006106db33610810565b905060008111610720576040517f08c379a000000000000000000000000000000000000000000000000000000000815260040161071790610e76565b60405180910390fd5b42600560003373ffffffffffffffffffffffffffffffffffffffff1673ffffffffffffffffffffffffffffffffffffffff16815260200190815260200160002081905550600160009054906101000a900473ffffffffffffffffffffffffffffffffffffffff1673ffffffffffffffffffffffffffffffffffffffff1663a9059cbb33836040518363ffffffff1660e01b81526004016107c1929190610c62565b6020604051808303816000875af11580156107e0573d6000803e3d6000fd5b505050506040513d601f19601f820116820180604052508101906108049190610cc3565b505061080e610909565b565b600080600560008473ffffffffffffffffffffffffffffffffffffffff1673ffffffffffffffffffffffffffffffffffffffff168152602001908152602001600020544261085e9190610d1f565b905080600254600460008673ffffffffffffffffffffffffffffffffffffffff1673ffffffffffffffffffffffffffffffffffffffff168152602001908152602001600020546108ae9190610e96565b6108b89190610e96565b915050919050565b600160009054906101000a900473ffffffffffffffffffffffffffffffffffffffff1681565b6108ee610924565b60026109006108fb610965565b610990565b60000181905550565b600161091b610916610965565b610990565b60000181905550565b61092c61099a565b15610963576040517f3ee5aeb500000000000000000000000000000000000000000000000000000000815260040160405180910390fd5b565b60007f9b779b17422d0df92223018b32b4d1fa46e071723d6817e2486d003becc55f0060001b905090565b6000819050919050565b600060026109ae6109a9610965565b610990565b6000015414905090565b600080fd5b6000819050919050565b6109d0816109bd565b81146109db57600080fd5b50565b6000813590506109ed816109c7565b92915050565b600060208284031215610a0957610a086109b8565b5b6000610a17848285016109de565b91505092915050565b600073ffffffffffffffffffffffffffffffffffffffff82169050919050565b6000610a4b82610a20565b9050919050565b610a5b81610a40565b8114610a6657600080fd5b50565b600081359050610a7881610a52565b92915050565b600060208284031215610a9457610a936109b8565b5b6000610aa284828501610a69565b91505092915050565b610ab4816109bd565b82525050565b6000602082019050610acf6000830184610aab565b92915050565b6000819050919050565b6000610afa610af5610af084610a20565b610ad5565b610a20565b9050919050565b6000610b0c82610adf565b9050919050565b6000610b1e82610b01565b9050919050565b610b2e81610b13565b82525050565b6000602082019050610b496000830184610b25565b92915050565b610b5881610a40565b82525050565b6000602082019050610b736000830184610b4f565b92915050565b600082825260208201905092915050565b7f43616e6e6f7420756e7374616b65207a65726f20746f6b656e73000000000000600082015250565b6000610bc0601a83610b79565b9150610bcb82610b8a565b602082019050919050565b60006020820190508181036000830152610bef81610bb3565b9050919050565b7f4e6f7420656e6f756768207374616b65642062616c616e636500000000000000600082015250565b6000610c2c601983610b79565b9150610c3782610bf6565b602082019050919050565b60006020820190508181036000830152610c5b81610c1f565b9050919050565b6000604082019050610c776000830185610b4f565b610c846020830184610aab565b9392505050565b60008115159050919050565b610ca081610c8b565b8114610cab57600080fd5b50565b600081519050610cbd81610c97565b92915050565b600060208284031215610cd957610cd86109b8565b5b6000610ce784828501610cae565b91505092915050565b7f4e487b7100000000000000000000000000000000000000000000000000000000600052601160045260246000fd5b6000610d2a826109bd565b9150610d35836109bd565b9250828203905081811115610d4d57610d4c610cf0565b5b92915050565b7f43616e6e6f74207374616b65207a65726f20746f6b656e730000000000000000600082015250565b6000610d89601883610b79565b9150610d9482610d53565b602082019050919050565b60006020820190508181036000830152610db881610d7c565b9050919050565b6000606082019050610dd46000830186610b4f565b610de16020830185610b4f565b610dee6040830184610aab565b949350505050565b6000610e01826109bd565b9150610e0c836109bd565b9250828201905080821115610e2457610e23610cf0565b5b92915050565b7f4e6f207265776172647320746f20636c61696d00000000000000000000000000600082015250565b6000610e60601383610b79565b9150610e6b82610e2a565b602082019050919050565b60006020820190508181036000830152610e8f81610e53565b9050919050565b6000610ea1826109bd565b9150610eac836109bd565b9250828202610eba816109bd565b91508282048414831517610ed157610ed0610cf0565b5b509291505056fea26469706673582212201d6f0074fcea2917115cecf0abac99a0d059f68c80b8c21cc470a7859ddc190364736f6c634300081c0033",
  "linkReferences": {},
  "deployedLinkReferences": {}
}