{
  "_format": "hh-sol-artifact-1",
  "contractName": "LendingPool",
  "sourceName": "contracts/LendingPool.sol",
  "abi": [
    {
      "inputs": [
        {
          "internalType": "address",
          "name": "_config",
          "type": "address"
        },
        {
          "internalType": "address",
          "name": "_oracle",
          "type": "address"
        },
        {
          "internalType": "address",
          "name": "_interestStrategy",
          "type": "address"
        }
      ],
      "stateMutability": "nonpayable",
      "type": "constructor"
    },
    {
      "inputs": [],
      "name": "ReentrancyGuardReentrantCall",
      "type": "error"
    },
    {
      "anonymous": false,
      "inputs": [
        {
          "indexed": false,
          "internalType": "address",
          "name": "user",
          "type": "address"
        },
        {
          "indexed": false,
          "internalType": "address",
          "name": "token",
          "type": "address"
        },
        {
          "indexed": false,
          "internalType": "uint256",
          "name": "amount",
          "type": "uint256"
        }
      ],
      "name": "Borrow",
      "type": "event"
    },
    {
      "anonymous": false,
      "inputs": [
        {
          "indexed": false,
          "internalType": "address",
          "name": "user",
          "type": "address"
        },
        {
          "indexed": false,
          "internalType": "address",
          "name": "token",
          "type": "address"
        },
        {
          "indexed": false,
          "internalType": "uint256",
          "name": "amount",
          "type": "uint256"
        }
      ],
      "name": "Deposit",
      "type": "event"
    },
    {
      "anonymous": false,
      "inputs": [
        {
          "indexed": false,
          "internalType": "address",
          "name": "user",
          "type": "address"
        },
        {
          "indexed": false,
          "internalType": "address",
          "name": "token",
          "type": "address"
        },
        {
          "indexed": false,
          "internalType": "uint256",
          "name": "amount",
          "type": "uint256"
        }
      ],
      "name": "Liquidate",
      "type": "event"
    },
    {
      "anonymous": false,
      "inputs": [
        {
          "indexed": false,
          "internalType": "address",
          "name": "user",
          "type": "address"
        },
        {
          "indexed": false,
          "internalType": "address",
          "name": "token",
          "type": "address"
        },
        {
          "indexed": false,
          "internalType": "uint256",
          "name": "amount",
          "type": "uint256"
        }
      ],
      "name": "Repay",
      "type": "event"
    },
    {
      "anonymous": false,
      "inputs": [
        {
          "indexed": false,
          "internalType": "address",
          "name": "user",
          "type": "address"
        },
        {
          "indexed": false,
          "internalType": "address",
          "name": "token",
          "type": "address"
        },
        {
          "indexed": false,
          "internalType": "uint256",
          "name": "amount",
          "type": "uint256"
        }
      ],
      "name": "Withdraw",
      "type": "event"
    },
    {
      "inputs": [
        {
          "internalType": "address",
          "name": "",
          "type": "address"
        }
      ],
      "name": "aTokens",
      "outputs": [
        {
          "internalType": "address",
          "name": "",
          "type": "address"
        }
      ],
      "stateMutability": "view",
      "type": "function"
    },
    {
      "inputs": [
        {
          "internalType": "address",
          "name": "_token",
          "type": "address"
        },
        {
          "internalType": "uint256",
          "name": "amount",
          "type": "uint256"
        }
      ],
      "name": "borrow",
      "outputs": [],
      "stateMutability": "nonpayable",
      "type": "function"
    },
    {
      "inputs": [
        {
          "internalType": "address",
          "name": "",
          "type": "address"
        },
        {
          "internalType": "address",
          "name": "",
          "type": "address"
        }
      ],
      "name": "borrows",
      "outputs": [
        {
          "internalType": "uint256",
          "name": "",
          "type": "uint256"
        }
      ],
      "stateMutability": "view",
      "type": "function"
    },
    {
      "inputs": [],
      "name": "config",
      "outputs": [
        {
          "internalType": "contract ProtocolConfig",
          "name": "",
          "type": "address"
        }
      ],
      "stateMutability": "view",
      "type": "function"
    },
    {
      "inputs": [
        {
          "internalType": "address",
          "name": "",
          "type": "address"
        }
      ],
      "name": "debtTokens",
      "outputs": [
        {
          "internalType": "address",
          "name": "",
          "type": "address"
        }
      ],
      "stateMutability": "view",
      "type": "function"
    },
    {
      "inputs": [
        {
          "internalType": "address",
          "name": "token",
          "type": "address"
        },
        {
          "internalType": "uint256",
          "name": "amount",
          "type": "uint256"
        }
      ],
      "name": "deposit",
      "outputs": [],
      "stateMutability": "nonpayable",
      "type": "function"
    },
    {
      "inputs": [
        {
          "internalType": "address",
          "name": "",
          "type": "address"
        },
        {
          "internalType": "address",
          "name": "",
          "type": "address"
        }
      ],
      "name": "deposits",
      "outputs": [
        {
          "internalType": "uint256",
          "name": "",
          "type": "uint256"
        }
      ],
      "stateMutability": "view",
      "type": "function"
    },
    {
      "inputs": [
        {
          "internalType": "address",
          "name": "user",
          "type": "address"
        }
      ],
      "name": "getHealthFactor",
      "outputs": [
        {
          "internalType": "uint256",
          "name": "",
          "type": "uint256"
        }
      ],
      "stateMutability": "view",
      "type": "function"
    },
    {
      "inputs": [
        {
          "internalType": "address",
          "name": "user",
          "type": "address"
        }
      ],
      "name": "getUserCollateralValue",
      "outputs": [
        {
          "internalType": "uint256",
          "name": "",
          "type": "uint256"
        }
      ],
      "stateMutability": "view",
      "type": "function"
    },
    {
      "inputs": [
        {
          "internalType": "address",
          "name": "user",
          "type": "address"
        }
      ],
      "name": "getUserDebtValue",
      "outputs": [
        {
          "internalType": "uint256",
          "name": "",
          "type": "uint256"
        }
      ],
      "stateMutability": "view",
      "type": "function"
    },
    {
      "inputs": [],
      "name": "interestStrategy",
      "outputs": [
        {
          "internalType": "contract InterestRateStrategy",
          "name": "",
          "type": "address"
        }
      ],
      "stateMutability": "view",
      "type": "function"
    },
    {
      "inputs": [
        {
          "internalType": "address",
          "name": "",
          "type": "address"
        }
      ],
      "name": "lastUpdateTimestamp",
      "outputs": [
        {
          "internalType": "uint256",
          "name": "",
          "type": "uint256"
        }
      ],
      "stateMutability": "view",
      "type": "function"
    },
    {
      "inputs": [
        {
          "internalType": "address",
          "name": "borrower",
          "type": "address"
        },
        {
          "internalType": "address",
          "name": "_token",
          "type": "address"
        },
        {
          "internalType": "uint256",
          "name": "amount",
          "type": "uint256"
        }
      ],
      "name": "liquidate",
      "outputs": [],
      "stateMutability": "nonpayable",
      "type": "function"
    },
    {
      "inputs": [
        {
          "internalType": "address",
          "name": "",
          "type": "address"
        }
      ],
      "name": "liquidityIndex",
      "outputs": [
        {
          "internalType": "uint256",
          "name": "",
          "type": "uint256"
        }
      ],
      "stateMutability": "view",
      "type": "function"
    },
    {
      "inputs": [],
      "name": "oracle",
      "outputs": [
        {
          "internalType": "contract Oracle",
          "name": "",
          "type": "address"
        }
      ],
      "stateMutability": "view",
      "type": "function"
    },
    {
      "inputs": [],
      "name": "owner",
      "outputs": [
        {
          "internalType": "address",
          "name": "",
          "type": "address"
        }
      ],
      "stateMutability": "view",
      "type": "function"
    },
    {
      "inputs": [
        {
          "internalType": "address",
          "name": "token",
          "type": "address"
        },
        {
          "internalType": "address",
          "name": "aTokenAddress",
          "type": "address"
        }
      ],
      "name": "registerAToken",
      "outputs": [],
      "stateMutability": "nonpayable",
      "type": "function"
    },
    {
      "inputs": [
        {
          "internalType": "address",
          "name": "token",
          "type": "address"
        },
        {
          "internalType": "address",
          "name": "debtTokenAddress",
          "type": "address"
        }
      ],
      "name": "registerDebtToken",
      "outputs": [],
      "stateMutability": "nonpayable",
      "type": "function"
    },
    {
      "inputs": [
        {
          "internalType": "address",
          "name": "_token",
          "type": "address"
        },
        {
          "internalType": "uint256",
          "name": "amount",
          "type": "uint256"
        }
      ],
      "name": "repay",
      "outputs": [],
      "stateMutability": "nonpayable",
      "type": "function"
    },
    {
      "inputs": [
        {
          "internalType": "uint256",
          "name": "",
          "type": "uint256"
        }
      ],
      "name": "supportedTokens",
      "outputs": [
        {
          "internalType": "address",
          "name": "",
          "type": "address"
        }
      ],
      "stateMutability": "view",
      "type": "function"
    },
    {
      "inputs": [
        {
          "internalType": "address",
          "name": "",
          "type": "address"
        }
      ],
      "name": "totalBorrows",
      "outputs": [
        {
          "internalType": "uint256",
          "name": "",
          "type": "uint256"
        }
      ],
      "stateMutability": "view",
      "type": "function"
    },
    {
      "inputs": [
        {
          "internalType": "address",
          "name": "",
          "type": "address"
        },
        {
          "internalType": "address",
          "name": "",
          "type": "address"
        }
      ],
      "name": "userDepositIndex",
      "outputs": [
        {
          "internalType": "uint256",
          "name": "",
          "type": "uint256"
        }
      ],
      "stateMutability": "view",
      "type": "function"
    },
    {
      "inputs": [
        {
          "internalType": "address",
          "name": "token",
          "type": "address"
        },
        {
          "internalType": "uint256",
          "name": "amount",
          "type": "uint256"
        }
      ],
      "name": "withdraw",
      "outputs": [],
      "stateMutability": "nonpayable",
      "type": "function"
    }
  ],
  "bytecode": "0x608060405234801561001057600080fd5b50604051613635380380613635833981810160405281019061003291906101fb565b600161005061004561016360201b60201c565b61018e60201b60201c565b6000018190555082600460006101000a81548173ffffffffffffffffffffffffffffffffffffffff021916908373ffffffffffffffffffffffffffffffffffffffff16021790555081600560006101000a81548173ffffffffffffffffffffffffffffffffffffffff021916908373ffffffffffffffffffffffffffffffffffffffff16021790555080600660006101000a81548173ffffffffffffffffffffffffffffffffffffffff021916908373ffffffffffffffffffffffffffffffffffffffff16021790555033600760006101000a81548173ffffffffffffffffffffffffffffffffffffffff021916908373ffffffffffffffffffffffffffffffffffffffff16021790555050505061024e565b60007f9b779b17422d0df92223018b32b4d1fa46e071723d6817e2486d003becc55f0060001b905090565b6000819050919050565b600080fd5b600073ffffffffffffffffffffffffffffffffffffffff82169050919050565b60006101c88261019d565b9050919050565b6101d8816101bd565b81146101e357600080fd5b50565b6000815190506101f5816101cf565b92915050565b60008060006060848603121561021457610213610198565b5b6000610222868287016101e6565b9350506020610233868287016101e6565b9250506040610244868287016101e6565b9150509250925092565b6133d88061025d6000396000f3fe608060405234801561001057600080fd5b506004361061014d5760003560e01c806379502c55116100c3578063985c98fa1161007c578063985c98fa146103d4578063af3f80b214610404578063c625562614610422578063f2d6e5d514610452578063f3fef3a314610482578063fe6bcd7c1461049e5761014d565b806379502c55146102ea5780637dc0d1d0146103085780638d730124146103265780638da5cb5b146103565780638f601f6614610374578063965d598f146103a45761014d565b806347e7ef241161011557806347e7ef24146102065780634b8a35291461022257806359da17841461023e5780635edbfa591461025a5780636c29219c1461028a57806375417da6146102ba5761014d565b806322867d781461015257806326c013031461016e5780632c29b4de1461018a5780633e108ad9146101ba5780633f0e81d8146101ea575b600080fd5b61016c600480360381019061016791906129ca565b6104ce565b005b61018860048036038101906101839190612a0a565b6107c2565b005b6101a4600480360381019061019f9190612a5d565b611115565b6040516101b19190612a99565b60405180910390f35b6101d460048036038101906101cf9190612a5d565b61112d565b6040516101e19190612ac3565b60405180910390f35b61020460048036038101906101ff9190612ade565b611160565b005b610220600480360381019061021b91906129ca565b611272565b005b61023c600480360381019061023791906129ca565b61158f565b005b61025860048036038101906102539190612ade565b611abd565b005b610274600480360381019061026f9190612ade565b611cc2565b6040516102819190612a99565b60405180910390f35b6102a4600480360381019061029f9190612ade565b611ce7565b6040516102b19190612a99565b60405180910390f35b6102d460048036038101906102cf9190612a5d565b611d0c565b6040516102e19190612a99565b60405180910390f35b6102f2611ec4565b6040516102ff9190612b7d565b60405180910390f35b610310611eea565b60405161031d9190612bb9565b60405180910390f35b610340600480360381019061033b9190612a5d565b611f10565b60405161034d9190612a99565b60405180910390f35b61035e611f28565b60405161036b9190612ac3565b60405180910390f35b61038e60048036038101906103899190612ade565b611f4e565b60405161039b9190612a99565b60405180910390f35b6103be60048036038101906103b99190612a5d565b611f73565b6040516103cb9190612ac3565b60405180910390f35b6103ee60048036038101906103e99190612a5d565b611fa6565b6040516103fb9190612a99565b60405180910390f35b61040c611fbe565b6040516104199190612bf5565b60405180910390f35b61043c60048036038101906104379190612c10565b611fe4565b6040516104499190612ac3565b60405180910390f35b61046c60048036038101906104679190612a5d565b612023565b6040516104799190612a99565b60405180910390f35b61049c600480360381019061049791906129ca565b6121db565b005b6104b860048036038101906104b39190612a5d565b6124d6565b6040516104c59190612a99565b60405180910390f35b6104d6612546565b80600b60008473ffffffffffffffffffffffffffffffffffffffff1673ffffffffffffffffffffffffffffffffffffffff16815260200190815260200160002060003373ffffffffffffffffffffffffffffffffffffffff1673ffffffffffffffffffffffffffffffffffffffff168152602001908152602001600020541015610595576040517f08c379a000000000000000000000000000000000000000000000000000000000815260040161058c90612c9a565b60405180910390fd5b8173ffffffffffffffffffffffffffffffffffffffff166323b872dd3330846040518463ffffffff1660e01b81526004016105d293929190612cba565b6020604051808303816000875af11580156105f1573d6000803e3d6000fd5b505050506040513d601f19601f820116820180604052508101906106159190612d29565b5080600b60008473ffffffffffffffffffffffffffffffffffffffff1673ffffffffffffffffffffffffffffffffffffffff16815260200190815260200160002060003373ffffffffffffffffffffffffffffffffffffffff1673ffffffffffffffffffffffffffffffffffffffff16815260200190815260200160002060008282546106a29190612d85565b925050819055506000600a60008473ffffffffffffffffffffffffffffffffffffffff1673ffffffffffffffffffffffffffffffffffffffff16815260200190815260200160002060009054906101000a900473ffffffffffffffffffffffffffffffffffffffff1690508073ffffffffffffffffffffffffffffffffffffffff16639dc29fac33846040518363ffffffff1660e01b8152600401610748929190612db9565b600060405180830381600087803b15801561076257600080fd5b505af1158015610776573d6000803e3d6000fd5b505050507f05f2eeda0e08e4b437f487c8d7d29b14537d15e3488170dc3de5dbdf8dac46843384846040516107ad93929190612cba565b60405180910390a1506107be612569565b5050565b6107ca612546565b80600b60008473ffffffffffffffffffffffffffffffffffffffff1673ffffffffffffffffffffffffffffffffffffffff16815260200190815260200160002060008573ffffffffffffffffffffffffffffffffffffffff1673ffffffffffffffffffffffffffffffffffffffff168152602001908152602001600020541015610889576040517f08c379a000000000000000000000000000000000000000000000000000000000815260040161088090612e54565b60405180910390fd5b600061089484611d0c565b90506000600560009054906101000a900473ffffffffffffffffffffffffffffffffffffffff1673ffffffffffffffffffffffffffffffffffffffff166341976e09856040518263ffffffff1660e01b81526004016108f39190612ac3565b602060405180830381865afa158015610910573d6000803e3d6000fd5b505050506040513d601f19601f820116820180604052508101906109349190612e89565b600b60008673ffffffffffffffffffffffffffffffffffffffff1673ffffffffffffffffffffffffffffffffffffffff16815260200190815260200160002060008773ffffffffffffffffffffffffffffffffffffffff1673ffffffffffffffffffffffffffffffffffffffff168152602001908152602001600020546109bb9190612eb6565b905080612710600460009054906101000a900473ffffffffffffffffffffffffffffffffffffffff1673ffffffffffffffffffffffffffffffffffffffff1663e48a5f7b876040518263ffffffff1660e01b8152600401610a1c9190612ac3565b608060405180830381865afa158015610a39573d6000803e3d6000fd5b505050506040513d601f19601f82011682018060405250810190610a5d9190613001565b6040015184610a6c9190612eb6565b610a76919061305d565b10610ab6576040517f08c379a0000000000000000000000000000000000000000000000000000000008152600401610aad906130da565b60405180910390fd5b8373ffffffffffffffffffffffffffffffffffffffff166323b872dd3330866040518463ffffffff1660e01b8152600401610af393929190612cba565b6020604051808303816000875af1158015610b12573d6000803e3d6000fd5b505050506040513d601f19601f82011682018060405250810190610b369190612d29565b5060005b600c80549050811015610f65576000600c8281548110610b5d57610b5c6130fa565b5b9060005260206000200160009054906101000a900473ffffffffffffffffffffffffffffffffffffffff1690506000600860008373ffffffffffffffffffffffffffffffffffffffff1673ffffffffffffffffffffffffffffffffffffffff16815260200190815260200160002060008973ffffffffffffffffffffffffffffffffffffffff1673ffffffffffffffffffffffffffffffffffffffff1681526020019081526020016000205490506000811115610f56576000600560009054906101000a900473ffffffffffffffffffffffffffffffffffffffff1673ffffffffffffffffffffffffffffffffffffffff166341976e09846040518263ffffffff1660e01b8152600401610c719190612ac3565b602060405180830381865afa158015610c8e573d6000803e3d6000fd5b505050506040513d601f19601f82011682018060405250810190610cb29190612e89565b90506000600560009054906101000a900473ffffffffffffffffffffffffffffffffffffffff1673ffffffffffffffffffffffffffffffffffffffff166341976e098a6040518263ffffffff1660e01b8152600401610d119190612ac3565b602060405180830381865afa158015610d2e573d6000803e3d6000fd5b505050506040513d601f19601f82011682018060405250810190610d529190612e89565b8289610d5e9190612eb6565b610d68919061305d565b90506000612710600460009054906101000a900473ffffffffffffffffffffffffffffffffffffffff1673ffffffffffffffffffffffffffffffffffffffff1663e48a5f7b876040518263ffffffff1660e01b8152600401610dca9190612ac3565b608060405180830381865afa158015610de7573d6000803e3d6000fd5b505050506040513d601f19601f82011682018060405250810190610e0b9190613001565b6020015183610e1a9190612eb6565b610e24919061305d565b90508082610e329190613129565b915083821115610e40578391505b81600860008773ffffffffffffffffffffffffffffffffffffffff1673ffffffffffffffffffffffffffffffffffffffff16815260200190815260200160002060008d73ffffffffffffffffffffffffffffffffffffffff1673ffffffffffffffffffffffffffffffffffffffff1681526020019081526020016000206000828254610ecc9190612d85565b925050819055508473ffffffffffffffffffffffffffffffffffffffff1663a9059cbb33846040518363ffffffff1660e01b8152600401610f0e929190612db9565b6020604051808303816000875af1158015610f2d573d6000803e3d6000fd5b505050506040513d601f19601f82011682018060405250810190610f519190612d29565b505050505b50508080600101915050610b3a565b5082600b60008673ffffffffffffffffffffffffffffffffffffffff1673ffffffffffffffffffffffffffffffffffffffff16815260200190815260200160002060008773ffffffffffffffffffffffffffffffffffffffff1673ffffffffffffffffffffffffffffffffffffffff1681526020019081526020016000206000828254610ff29190612d85565b925050819055506000600a60008673ffffffffffffffffffffffffffffffffffffffff1673ffffffffffffffffffffffffffffffffffffffff16815260200190815260200160002060009054906101000a900473ffffffffffffffffffffffffffffffffffffffff1690508073ffffffffffffffffffffffffffffffffffffffff16639dc29fac87866040518363ffffffff1660e01b8152600401611098929190612db9565b600060405180830381600087803b1580156110b257600080fd5b505af11580156110c6573d6000803e3d6000fd5b505050507faef3faf684172084346f7dc2cc3bb1328d1cc23caec12dd9a82d4a4e56c00b178686866040516110fd93929190612cba565b60405180910390a1505050611110612569565b505050565b60026020528060005260406000206000915090505481565b60096020528060005260406000206000915054906101000a900473ffffffffffffffffffffffffffffffffffffffff1681565b600760009054906101000a900473ffffffffffffffffffffffffffffffffffffffff1673ffffffffffffffffffffffffffffffffffffffff163373ffffffffffffffffffffffffffffffffffffffff16146111f0576040517f08c379a00000000000000000000000000000000000000000000000000000000081526004016111e7906131a9565b60405180910390fd5b80600a60008473ffffffffffffffffffffffffffffffffffffffff1673ffffffffffffffffffffffffffffffffffffffff16815260200190815260200160002060006101000a81548173ffffffffffffffffffffffffffffffffffffffff021916908373ffffffffffffffffffffffffffffffffffffffff1602179055505050565b61127a612546565b61128382612584565b600460009054906101000a900473ffffffffffffffffffffffffffffffffffffffff1673ffffffffffffffffffffffffffffffffffffffff1663e48a5f7b836040518263ffffffff1660e01b81526004016112de9190612ac3565b608060405180830381865afa1580156112fb573d6000803e3d6000fd5b505050506040513d601f19601f8201168201806040525081019061131f9190613001565b60600151611362576040517f08c379a000000000000000000000000000000000000000000000000000000000815260040161135990613215565b60405180910390fd5b8173ffffffffffffffffffffffffffffffffffffffff166323b872dd3330846040518463ffffffff1660e01b815260040161139f93929190612cba565b6020604051808303816000875af11580156113be573d6000803e3d6000fd5b505050506040513d601f19601f820116820180604052508101906113e29190612d29565b5080600860008473ffffffffffffffffffffffffffffffffffffffff1673ffffffffffffffffffffffffffffffffffffffff16815260200190815260200160002060003373ffffffffffffffffffffffffffffffffffffffff1673ffffffffffffffffffffffffffffffffffffffff168152602001908152602001600020600082825461146f9190613129565b925050819055506000600960008473ffffffffffffffffffffffffffffffffffffffff1673ffffffffffffffffffffffffffffffffffffffff16815260200190815260200160002060009054906101000a900473ffffffffffffffffffffffffffffffffffffffff1690508073ffffffffffffffffffffffffffffffffffffffff166340c10f1933846040518363ffffffff1660e01b8152600401611515929190612db9565b600060405180830381600087803b15801561152f57600080fd5b505af1158015611543573d6000803e3d6000fd5b505050507f5548c837ab068cf56a2c2479df0882a4922fd203edb7517321831d95078c5f6233848460405161157a93929190612cba565b60405180910390a15061158b612569565b5050565b611597612546565b6115a082612584565b808273ffffffffffffffffffffffffffffffffffffffff166370a08231306040518263ffffffff1660e01b81526004016115da9190612ac3565b602060405180830381865afa1580156115f7573d6000803e3d6000fd5b505050506040513d601f19601f8201168201806040525081019061161b9190612e89565b101561165c576040517f08c379a000000000000000000000000000000000000000000000000000000000815260040161165390613281565b60405180910390fd5b600460009054906101000a900473ffffffffffffffffffffffffffffffffffffffff1673ffffffffffffffffffffffffffffffffffffffff1663e48a5f7b836040518263ffffffff1660e01b81526004016116b79190612ac3565b608060405180830381865afa1580156116d4573d6000803e3d6000fd5b505050506040513d601f19601f820116820180604052508101906116f89190613001565b6060015161173b576040517f08c379a000000000000000000000000000000000000000000000000000000000815260040161173290613215565b60405180910390fd5b612710600460009054906101000a900473ffffffffffffffffffffffffffffffffffffffff1673ffffffffffffffffffffffffffffffffffffffff1663e48a5f7b846040518263ffffffff1660e01b81526004016117999190612ac3565b608060405180830381865afa1580156117b6573d6000803e3d6000fd5b505050506040513d601f19601f820116820180604052508101906117da9190613001565b60000151826117e99190612eb6565b6117f3919061305d565b6117fc33611d0c565b101561183d576040517f08c379a0000000000000000000000000000000000000000000000000000000008152600401611834906132ed565b60405180910390fd5b80600b60008473ffffffffffffffffffffffffffffffffffffffff1673ffffffffffffffffffffffffffffffffffffffff16815260200190815260200160002060003373ffffffffffffffffffffffffffffffffffffffff1673ffffffffffffffffffffffffffffffffffffffff16815260200190815260200160002060008282546118c99190613129565b92505081905550806000808473ffffffffffffffffffffffffffffffffffffffff1673ffffffffffffffffffffffffffffffffffffffff168152602001908152602001600020600082825461191e9190613129565b925050819055508173ffffffffffffffffffffffffffffffffffffffff1663a9059cbb33836040518363ffffffff1660e01b8152600401611960929190612db9565b6020604051808303816000875af115801561197f573d6000803e3d6000fd5b505050506040513d601f19601f820116820180604052508101906119a39190612d29565b506000600a60008473ffffffffffffffffffffffffffffffffffffffff1673ffffffffffffffffffffffffffffffffffffffff16815260200190815260200160002060009054906101000a900473ffffffffffffffffffffffffffffffffffffffff1690508073ffffffffffffffffffffffffffffffffffffffff166340c10f1933846040518363ffffffff1660e01b8152600401611a43929190612db9565b600060405180830381600087803b158015611a5d57600080fd5b505af1158015611a71573d6000803e3d6000fd5b505050507f312a5e5e1079f5dda4e95dbbd0b908b291fd5b992ef22073643ab691572c5b52338484604051611aa893929190612cba565b60405180910390a150611ab9612569565b5050565b600760009054906101000a900473ffffffffffffffffffffffffffffffffffffffff1673ffffffffffffffffffffffffffffffffffffffff163373ffffffffffffffffffffffffffffffffffffffff1614611b4d576040517f08c379a0000000000000000000000000000000000000000000000000000000008152600401611b44906131a9565b60405180910390fd5b80600960008473ffffffffffffffffffffffffffffffffffffffff1673ffffffffffffffffffffffffffffffffffffffff16815260200190815260200160002060006101000a81548173ffffffffffffffffffffffffffffffffffffffff021916908373ffffffffffffffffffffffffffffffffffffffff160217905550600c829080600181540180825580915050600190039060005260206000200160009091909190916101000a81548173ffffffffffffffffffffffffffffffffffffffff021916908373ffffffffffffffffffffffffffffffffffffffff160217905550670de0b6b3a7640000600160008473ffffffffffffffffffffffffffffffffffffffff1673ffffffffffffffffffffffffffffffffffffffff1681526020019081526020016000208190555042600260008473ffffffffffffffffffffffffffffffffffffffff1673ffffffffffffffffffffffffffffffffffffffff168152602001908152602001600020819055505050565b6003602052816000526040600020602052806000526040600020600091509150505481565b600b602052816000526040600020602052806000526040600020600091509150505481565b6000806000905060005b600c80549050811015611eba576000600c8281548110611d3957611d386130fa565b5b9060005260206000200160009054906101000a900473ffffffffffffffffffffffffffffffffffffffff1690506000600860008373ffffffffffffffffffffffffffffffffffffffff1673ffffffffffffffffffffffffffffffffffffffff16815260200190815260200160002060008773ffffffffffffffffffffffffffffffffffffffff1673ffffffffffffffffffffffffffffffffffffffff1681526020019081526020016000205490506000811115611eab576000600560009054906101000a900473ffffffffffffffffffffffffffffffffffffffff1673ffffffffffffffffffffffffffffffffffffffff166341976e09846040518263ffffffff1660e01b8152600401611e4d9190612ac3565b602060405180830381865afa158015611e6a573d6000803e3d6000fd5b505050506040513d601f19601f82011682018060405250810190611e8e9190612e89565b90508082611e9c9190612eb6565b85611ea79190613129565b9450505b50508080600101915050611d16565b5080915050919050565b600460009054906101000a900473ffffffffffffffffffffffffffffffffffffffff1681565b600560009054906101000a900473ffffffffffffffffffffffffffffffffffffffff1681565b60006020528060005260406000206000915090505481565b600760009054906101000a900473ffffffffffffffffffffffffffffffffffffffff1681565b6008602052816000526040600020602052806000526040600020600091509150505481565b600a6020528060005260406000206000915054906101000a900473ffffffffffffffffffffffffffffffffffffffff1681565b60016020528060005260406000206000915090505481565b600660009054906101000a900473ffffffffffffffffffffffffffffffffffffffff1681565b600c8181548110611ff457600080fd5b906000526020600020016000915054906101000a900473ffffffffffffffffffffffffffffffffffffffff1681565b6000806000905060005b600c805490508110156121d1576000600c82815481106120505761204f6130fa565b5b9060005260206000200160009054906101000a900473ffffffffffffffffffffffffffffffffffffffff1690506000600b60008373ffffffffffffffffffffffffffffffffffffffff1673ffffffffffffffffffffffffffffffffffffffff16815260200190815260200160002060008773ffffffffffffffffffffffffffffffffffffffff1673ffffffffffffffffffffffffffffffffffffffff16815260200190815260200160002054905060008111156121c2576000600560009054906101000a900473ffffffffffffffffffffffffffffffffffffffff1673ffffffffffffffffffffffffffffffffffffffff166341976e09846040518263ffffffff1660e01b81526004016121649190612ac3565b602060405180830381865afa158015612181573d6000803e3d6000fd5b505050506040513d601f19601f820116820180604052508101906121a59190612e89565b905080826121b39190612eb6565b856121be9190613129565b9450505b5050808060010191505061202d565b5080915050919050565b6121e3612546565b6121ec82612584565b80600860008473ffffffffffffffffffffffffffffffffffffffff1673ffffffffffffffffffffffffffffffffffffffff16815260200190815260200160002060003373ffffffffffffffffffffffffffffffffffffffff1673ffffffffffffffffffffffffffffffffffffffff1681526020019081526020016000205410156122ab576040517f08c379a00000000000000000000000000000000000000000000000000000000081526004016122a290613359565b60405180910390fd5b6000600960008473ffffffffffffffffffffffffffffffffffffffff1673ffffffffffffffffffffffffffffffffffffffff16815260200190815260200160002060009054906101000a900473ffffffffffffffffffffffffffffffffffffffff1690508073ffffffffffffffffffffffffffffffffffffffff16639dc29fac33846040518363ffffffff1660e01b815260040161234a929190612db9565b600060405180830381600087803b15801561236457600080fd5b505af1158015612378573d6000803e3d6000fd5b5050505081600860008573ffffffffffffffffffffffffffffffffffffffff1673ffffffffffffffffffffffffffffffffffffffff16815260200190815260200160002060003373ffffffffffffffffffffffffffffffffffffffff1673ffffffffffffffffffffffffffffffffffffffff16815260200190815260200160002060008282546124089190612d85565b925050819055508273ffffffffffffffffffffffffffffffffffffffff1663a9059cbb33846040518363ffffffff1660e01b815260040161244a929190612db9565b6020604051808303816000875af1158015612469573d6000803e3d6000fd5b505050506040513d601f19601f8201168201806040525081019061248d9190612d29565b507f9b1bfa7fa9ee420a16e124f794c35ac9f90472acc99140eb2f6447c714cad8eb3384846040516124c193929190612cba565b60405180910390a1506124d2612569565b5050565b6000806124e283611d0c565b905060006124ef84612023565b905060008103612523577fffffffffffffffffffffffffffffffffffffffffffffffffffffffffffffffff92505050612541565b80612710836125329190612eb6565b61253c919061305d565b925050505b919050565b61254e612893565b600261256061255b6128d4565b6128ff565b60000181905550565b600161257b6125766128d4565b6128ff565b60000181905550565b6000600260008373ffffffffffffffffffffffffffffffffffffffff1673ffffffffffffffffffffffffffffffffffffffff16815260200190815260200160002054426125d19190612d85565b9050600081111561288e5760008273ffffffffffffffffffffffffffffffffffffffff166370a08231306040518263ffffffff1660e01b81526004016126179190612ac3565b602060405180830381865afa158015612634573d6000803e3d6000fd5b505050506040513d601f19601f820116820180604052508101906126589190612e89565b9050600081036126ad5742600260008573ffffffffffffffffffffffffffffffffffffffff1673ffffffffffffffffffffffffffffffffffffffff168152602001908152602001600020819055505050612890565b6000600160008573ffffffffffffffffffffffffffffffffffffffff1673ffffffffffffffffffffffffffffffffffffffff1681526020019081526020016000205490506000600660009054906101000a900473ffffffffffffffffffffffffffffffffffffffff1673ffffffffffffffffffffffffffffffffffffffff166366c57dca6000808873ffffffffffffffffffffffffffffffffffffffff1673ffffffffffffffffffffffffffffffffffffffff16815260200190815260200160002054856040518363ffffffff1660e01b815260040161278e929190613379565b602060405180830381865afa1580156127ab573d6000803e3d6000fd5b505050506040513d601f19601f820116820180604052508101906127cf9190612e89565b905064496cebb8008482846127e49190612eb6565b6127ee9190612eb6565b6127f8919061305d565b826128039190613129565b600160008773ffffffffffffffffffffffffffffffffffffffff1673ffffffffffffffffffffffffffffffffffffffff1681526020019081526020016000208190555042600260008773ffffffffffffffffffffffffffffffffffffffff1673ffffffffffffffffffffffffffffffffffffffff168152602001908152602001600020819055505050505b505b50565b61289b612909565b156128d2576040517f3ee5aeb500000000000000000000000000000000000000000000000000000000815260040160405180910390fd5b565b60007f9b779b17422d0df92223018b32b4d1fa46e071723d6817e2486d003becc55f0060001b905090565b6000819050919050565b6000600261291d6129186128d4565b6128ff565b6000015414905090565b6000604051905090565b600080fd5b600073ffffffffffffffffffffffffffffffffffffffff82169050919050565b600061296182612936565b9050919050565b61297181612956565b811461297c57600080fd5b50565b60008135905061298e81612968565b92915050565b6000819050919050565b6129a781612994565b81146129b257600080fd5b50565b6000813590506129c48161299e565b92915050565b600080604083850312156129e1576129e0612931565b5b60006129ef8582860161297f565b9250506020612a00858286016129b5565b9150509250929050565b600080600060608486031215612a2357612a22612931565b5b6000612a318682870161297f565b9350506020612a428682870161297f565b9250506040612a53868287016129b5565b9150509250925092565b600060208284031215612a7357612a72612931565b5b6000612a818482850161297f565b91505092915050565b612a9381612994565b82525050565b6000602082019050612aae6000830184612a8a565b92915050565b612abd81612956565b82525050565b6000602082019050612ad86000830184612ab4565b92915050565b60008060408385031215612af557612af4612931565b5b6000612b038582860161297f565b9250506020612b148582860161297f565b9150509250929050565b6000819050919050565b6000612b43612b3e612b3984612936565b612b1e565b612936565b9050919050565b6000612b5582612b28565b9050919050565b6000612b6782612b4a565b9050919050565b612b7781612b5c565b82525050565b6000602082019050612b926000830184612b6e565b92915050565b6000612ba382612b4a565b9050919050565b612bb381612b98565b82525050565b6000602082019050612bce6000830184612baa565b92915050565b6000612bdf82612b4a565b9050919050565b612bef81612bd4565b82525050565b6000602082019050612c0a6000830184612be6565b92915050565b600060208284031215612c2657612c25612931565b5b6000612c34848285016129b5565b91505092915050565b600082825260208201905092915050565b7f526570617920616d6f756e74206578636565647320626f72726f770000000000600082015250565b6000612c84601b83612c3d565b9150612c8f82612c4e565b602082019050919050565b60006020820190508181036000830152612cb381612c77565b9050919050565b6000606082019050612ccf6000830186612ab4565b612cdc6020830185612ab4565b612ce96040830184612a8a565b949350505050565b60008115159050919050565b612d0681612cf1565b8114612d1157600080fd5b50565b600081519050612d2381612cfd565b92915050565b600060208284031215612d3f57612d3e612931565b5b6000612d4d84828501612d14565b91505092915050565b7f4e487b7100000000000000000000000000000000000000000000000000000000600052601160045260246000fd5b6000612d9082612994565b9150612d9b83612994565b9250828203905081811115612db357612db2612d56565b5b92915050565b6000604082019050612dce6000830185612ab4565b612ddb6020830184612a8a565b9392505050565b7f4c69717569646174696f6e20616d6f756e74206578636565647320626f72726f60008201527f7700000000000000000000000000000000000000000000000000000000000000602082015250565b6000612e3e602183612c3d565b9150612e4982612de2565b604082019050919050565b60006020820190508181036000830152612e6d81612e31565b9050919050565b600081519050612e838161299e565b92915050565b600060208284031215612e9f57612e9e612931565b5b6000612ead84828501612e74565b91505092915050565b6000612ec182612994565b9150612ecc83612994565b9250828202612eda81612994565b91508282048414831517612ef157612ef0612d56565b5b5092915050565b600080fd5b6000601f19601f8301169050919050565b7f4e487b7100000000000000000000000000000000000000000000000000000000600052604160045260246000fd5b612f4682612efd565b810181811067ffffffffffffffff82111715612f6557612f64612f0e565b5b80604052505050565b6000612f78612927565b9050612f848282612f3d565b919050565b600060808284031215612f9f57612f9e612ef8565b5b612fa96080612f6e565b90506000612fb984828501612e74565b6000830152506020612fcd84828501612e74565b6020830152506040612fe184828501612e74565b6040830152506060612ff584828501612d14565b60608301525092915050565b60006080828403121561301757613016612931565b5b600061302584828501612f89565b91505092915050565b7f4e487b7100000000000000000000000000000000000000000000000000000000600052601260045260246000fd5b600061306882612994565b915061307383612994565b9250826130835761308261302e565b5b828204905092915050565b7f506f736974696f6e206e6f7420756e646572636f6c6c61746572616c697a6564600082015250565b60006130c4602083612c3d565b91506130cf8261308e565b602082019050919050565b600060208201905081810360008301526130f3816130b7565b9050919050565b7f4e487b7100000000000000000000000000000000000000000000000000000000600052603260045260246000fd5b600061313482612994565b915061313f83612994565b925082820190508082111561315757613156612d56565b5b92915050565b7f4f6e6c79206f776e657200000000000000000000000000000000000000000000600082015250565b6000613193600a83612c3d565b915061319e8261315d565b602082019050919050565b600060208201905081810360008301526131c281613186565b9050919050565b7f4173736574206e6f7420737570706f7274656400000000000000000000000000600082015250565b60006131ff601383612c3d565b915061320a826131c9565b602082019050919050565b6000602082019050818103600083015261322e816131f2565b9050919050565b7f496e73756666696369656e74206c697175696469747900000000000000000000600082015250565b600061326b601683612c3d565b915061327682613235565b602082019050919050565b6000602082019050818103600083015261329a8161325e565b9050919050565b7f496e73756666696369656e7420636f6c6c61746572616c000000000000000000600082015250565b60006132d7601783612c3d565b91506132e2826132a1565b602082019050919050565b60006020820190508181036000830152613306816132ca565b9050919050565b7f496e73756666696369656e742062616c616e6365000000000000000000000000600082015250565b6000613343601483612c3d565b915061334e8261330d565b602082019050919050565b6000602082019050818103600083015261337281613336565b9050919050565b600060408201905061338e6000830185612a8a565b61339b6020830184612a8a565b939250505056fea26469706673582212208d1039e668fc30f5db0c87ff7a4a6abdf5965614c661ab134209db091d2c799064736f6c634300081c0033",
  "linkReferences": {},
  "deployedLinkReferences": {}
}