{
  "_format": "hh-sol-artifact-1",
  "contractName": "InterestRateStrategy",
  "sourceName": "contracts/InterestRateStrategy.sol",
  "abi": [
    {
      "inputs": [
        {
          "internalType": "uint256",
          "name": "_baseRate",
          "type": "uint256"
        },
        {
          "internalType": "uint256",
          "name": "_slope1",
          "type": "uint256"
        },
        {
          "internalType": "uint256",
          "name": "_slope2",
          "type": "uint256"
        },
        {
          "internalType": "uint256",
          "name": "_optimalUtilisation",
          "type": "uint256"
        }
      ],
      "stateMutability": "nonpayable",
      "type": "constructor"
    },
    {
      "inputs": [],
      "name": "baseRate",
      "outputs": [
        {
          "internalType": "uint256",
          "name": "",
          "type": "uint256"
        }
      ],
      "stateMutability": "view",
      "type": "function"
    },
    {
      "inputs": [
        {
          "internalType": "uint256",
          "name": "totalBorrowed",
          "type": "uint256"
        },
        {
          "internalType": "uint256",
          "name": "totalDeposited",
          "type": "uint256"
        }
      ],
      "name": "calculateBorrowRate",
      "outputs": [
        {
          "internalType": "uint256",
          "name": "",
          "type": "uint256"
        }
      ],
      "stateMutability": "view",
      "type": "function"
    },
    {
      "inputs": [
        {
          "internalType": "uint256",
          "name": "totalBorrowed",
          "type": "uint256"
        },
        {
          "internalType": "uint256",
          "name": "totalDeposited",
          "type": "uint256"
        }
      ],
      "name": "calculateUtilisation",
      "outputs": [
        {
          "internalType": "uint256",
          "name": "",
          "type": "uint256"
        }
      ],
      "stateMutability": "pure",
      "type": "function"
    },
    {
      "inputs": [],
      "name": "optimalUtilisation",
      "outputs": [
        {
          "internalType": "uint256",
          "name": "",
          "type": "uint256"
        }
      ],
      "stateMutability": "view",
      "type": "function"
    },
    {
      "inputs": [],
      "name": "slope1",
      "outputs": [
        {
          "internalType": "uint256",
          "name": "",
          "type": "uint256"
        }
      ],
      "stateMutability": "view",
      "type": "function"
    },
    {
      "inputs": [],
      "name": "slope2",
      "outputs": [
        {
          "internalType": "uint256",
          "name": "",
          "type": "uint256"
        }
      ],
      "stateMutability": "view",
      "type": "function"
    }
  ],
  "bytecode": "0x608060405234801561001057600080fd5b5060405161061638038061061683398181016040528101906100329190610092565b83600081905550826001819055508160028190555080600381905550505050506100f9565b600080fd5b6000819050919050565b61006f8161005c565b811461007a57600080fd5b50565b60008151905061008c81610066565b92915050565b600080600080608085870312156100ac576100ab610057565b5b60006100ba8782880161007d565b94505060206100cb8782880161007d565b93505060406100dc8782880161007d565b92505060606100ed8782880161007d565b91505092959194509250565b61050e806101086000396000f3fe608060405234801561001057600080fd5b50600436106100625760003560e01c80631f68f20a146100675780634f8be2c21461008557806366c57dca146100a357806371f8b185146100d3578063a62b75a814610103578063d0134cb714610121575b600080fd5b61006f61013f565b60405161007c9190610270565b60405180910390f35b61008d610145565b60405161009a9190610270565b60405180910390f35b6100bd60048036038101906100b891906102bc565b61014b565b6040516100ca9190610270565b60405180910390f35b6100ed60048036038101906100e891906102bc565b6101e6565b6040516100fa9190610270565b60405180910390f35b61010b61024b565b6040516101189190610270565b60405180910390f35b610129610251565b6040516101369190610270565b60405180910390f35b60005481565b60035481565b60008061015884846101e6565b90506003548110156101945761271060015482610175919061032b565b61017f919061039c565b60005461018c91906103cd565b9150506101e0565b6000600354826101a49190610401565b9050612710600254826101b7919061032b565b6101c1919061039c565b6001546000546101d191906103cd565b6101db91906103cd565b925050505b92915050565b600080821161022a576040517f08c379a0000000000000000000000000000000000000000000000000000000008152600401610221906104b8565b60405180910390fd5b8161271084610239919061032b565b610243919061039c565b905092915050565b60015481565b60025481565b6000819050919050565b61026a81610257565b82525050565b60006020820190506102856000830184610261565b92915050565b600080fd5b61029981610257565b81146102a457600080fd5b50565b6000813590506102b681610290565b92915050565b600080604083850312156102d3576102d261028b565b5b60006102e1858286016102a7565b92505060206102f2858286016102a7565b9150509250929050565b7f4e487b7100000000000000000000000000000000000000000000000000000000600052601160045260246000fd5b600061033682610257565b915061034183610257565b925082820261034f81610257565b91508282048414831517610366576103656102fc565b5b5092915050565b7f4e487b7100000000000000000000000000000000000000000000000000000000600052601260045260246000fd5b60006103a782610257565b91506103b283610257565b9250826103c2576103c161036d565b5b828204905092915050565b60006103d882610257565b91506103e383610257565b92508282019050808211156103fb576103fa6102fc565b5b92915050565b600061040c82610257565b915061041783610257565b925082820390508181111561042f5761042e6102fc565b5b92915050565b600082825260208201905092915050565b7f546f74616c206465706f7369746564206d75737420626520677265617465722060008201527f7468616e207a65726f0000000000000000000000000000000000000000000000602082015250565b60006104a2602983610435565b91506104ad82610446565b604082019050919050565b600060208201905081810360008301526104d181610495565b905091905056fea2646970667358221220b303f69b2580e1eee5ae42d21d5ceccc5623e104a3cd1210f144ef72beeae43a64736f6c634300081c0033",
  "linkReferences": {},
  "deployedLinkReferences": {}
}